:1000000045C000004BC0000049C0000047C00000D0
:1000100045C0000043C0000041C000003FC00000D8
:100020003DC000003BC0000039C0000037C00000E8
:1000300035C0000033C0000031C000002FC00000F8
:100040002DC000002BC0000029C0000027C0000008
:1000500025C0000023C0000021C000001FC0000018
:100060001DC000001BC0000019C0000017C0000028
:1000700015C0000013C0000011C000000FC0000038
:100080000DC000000BC0000009C0000011241FBEFD
:10009000CFEFD0E1DEBFCDBF29D032C0B1CF87EFE7
:1000A0008BBB89B3863FC1F089B38D3FB9F089B36B
:1000B0008B3FB1F08FEF97E40197F1F700C000009C
:1000C0008FEE8BBB89B38E3F69F089B38D3F61F0B2
:1000D0008BEF89BB86E3089581E3089582E3089559
:1000E00083E3089584E3089585E3089588EF8ABB48
:1000F0008FEF84BBD4DF8133E9F781E085BBFACF92
:04010000F894FFCFA1
:00000001FF
