S011000054696D65436F756E742E737265637B
S113000045C0000060C000005EC000005CC000008D
S11300105AC0000083C0000056C0000054C0000055
S113002052C0000051C000004EC000004CC000008F
S11300304AC0000048C0000046C0000044C00000A0
S113004042C0000040C000003EC000003CC00000B0
S11300503AC0000038C0000036C0000034C00000C0
S113006032C0000030C000002EC000002CC00000D0
S11300702AC0000028C0000026C0000024C00000E0
S113008022C0000020C000001EC0000011241FBEBA
S1130090CFEFD0E1DEBFCDBF11E0A0E0B1E0E4E8F6
S11300A0F1E000E00BBF02C007900D92A231B1074E
S11300B0D9F721E0A2E1B1E001C01D92A531B20758
S11300C0E1F744D05DC09CCF1F920F920FB60F9200
S11300D011248F93F89483B5885B83BD80911201BA
S11300E08F5F80931201823391F480911301811107
S11300F00CC080911401803118F01092140105C0D5
S1130100809114018F5F80931401109212017894EE
S11301108F910F900FBE0F901F9018951F920F9202
S11301200FB60F9211248F93F894809113018111CB
S113013004C081E08093130102C0109213017894EB
S11301408F910F900FBE0F901F9018958FEF8ABB61
S113015012B885E085BD88E483BD80E887BF86B793
S1130160806886BF83E08ABF80E189BF88BF7894B6
S1130170E0911401F0E0E050FF4F80818BBBF8CF99
S1070180F894FFCF1D
S11301843F065B4F666D7C077F67777C395E7971C8
S10501940880DD
S9030000FC
