S00B00004C43442E7372656346
S113000045C0000060C000005EC000005CC000008D
S11300105AC00000EAC0000056C0000054C00000EE
S113002052C0000050C000004EC000004CC0000090
S11300304AC0000048C0000046C0000044C00000A0
S113004042C0000040C000003EC000003CC00000B0
S11300503AC0000038C0000036C0000034C00000C0
S113006032C0000030C000002EC000002CC00000D0
S11300702AC0000028C0000026C0000024C00000E0
S113008022C0000020C000001EC0000011241FBEBA
S1130090CFEFD0E1DEBFCDBF11E0A0E0B1E0E8E6F4
S11300A0F2E000E00BBF02C007900D92AE30B10742
S11300B0D9F721E0AEE0B1E001C01D92A031B20752
S11300C0E1F7B4D0CFC09CCFE5E6F0E09081946036
S11300D0908390819D7F908390819160908390E143
S11300E09A95F1F700C08BBB80E18A95F1F700C0C7
S11300F080818E7F80830895E5E6F0E090819B7F88
S1130100908390819D7F908390819160908390E112
S11301109A95F1F700C08BBB80E18A95F1F700C096
S113012080818E7F80830895CFDF83EC99E00197EF
S1130130F1F700C000000895CF93DF93EC0108C0ED
S1130140F3DF219683EC99E00197F1F700C00000FA
S113015088818111F5CF83EC99E00197F1F700C014
S11301600000DF91CF91089590E4899F600D1124E0
S1130170862F8068C1DF83EC99E00197F1F700C016
S11301800000089581E0B8DF83EC99E00197F1F76E
S113019000C00000089588E3AFDF83EF91E001978A
S11301A0F1F700C0000088E3A7DF83EF91E0019737
S11301B0F1F700C0000088E39FDF83EF91E001972F
S11301C0F1F700C000008CE097DF83EF91E0019726
S11301D0F1F700C0000086E08FDF83EF91E0019724
S11301E0F1F700C00000CECF08951F920F920FB612
S11301F00F9211248F939F93F89480910E01909104
S11302000F01892B39F481E090E090930F018093E2
S11302100E0104C010920F0110920E0178949F9168
S11302208F910F900FBE0F901F9018958FEF8ABB80
S113023012B88FE08093640082E080936A0080E1CA
S113024089BF88BF7894A7DF9DDF80910E019091CC
S11302500F01892BD1F760E080E086DF80E091E038
S10B02606BDFF3CFF894FFCF2C
S1110268494E54455252555054212121000054
S9030000FC
