S00C0000554152542E73726563DC
S113000045C0000058C0000056C0000054C00000A5
S113001052C0000050C000004EC000004CC00000A0
S11300204AC0000048C0000046C0000044C00000B0
S113003042C0000040C000003EC000003CC00000C0
S11300403AC0000038C0000036C0000034C00000D0
S113005032C0000030C000002EC000002CC00000E0
S11300602AC0000028C0000026C0000024C00000F0
S113007022C0000020C000001EC000001CC0000000
S11300801AC0000018C0000016C0000011241FBED2
S1130090CFEFD0E1DEBFCDBF11E0A0E0B1E0E4E9F5
S11300A0F1E000E00BBF02C007900D92AE31B10742
S11300B0D9F71DD06DC0A4CF5D9BFECF8CB98BB199
S11300C080628BB908955F9BFECF8CB19BB1906821
S11300D09BB90895CF93DF93EC0103C090E0F3DF65
S11300E0219688818111FACFDF91CF910895CF9322
S11300F0DF93CDB7DEB76E970FB6F894DEBF0FBEB1
S1130100CDBF84E1E0E0F1E0DE01119601900D92B3
S11301108A95E1F78AE0E4E1F1E0DE015596019089
S11301200D928A95E1F78EEF82B91BB888E18AB9FE
S113013086E0809395001092900083E089B9F12CB9
S113014002C0F394B9DFE1E0F0E0EC0FFD1FEF0D26
S1130150F11D80818111F5CFF12C02C0F394ACDF45
S1130160E5E1F0E0EC0FFD1FEF0DF11D8081811141
S1130170F5CFA9DFF82E08C0F09EC001F19E900DC6
S11301801124A8DF0F5F1F4F0A301105ACF3F1CF24
S1070190F894FFCF0D
S11301940D0A6D756C7469706C69636174696F6E52
S11101A42E0D0A006563686F203E3E3E20006B
S9030000FC
