S01400004D696E692050726F6A6563742E737265638C
S113000045C0000060C000005EC000005CC000008D
S11300105AC0000058C0000056C0000054C0000080
S113002052C0000050C000004EC000004CC0000090
S11300304AC0000048C0000046C0000044C00000A0
S113004042C0000040C000003EC000003CC00000B0
S11300503AC0000038C0000036C0000034C00000C0
S113006032C0000030C000002EC000002CC00000D0
S11300702AC0000028C0000026C0000024C00000E0
S113008022C0000020C000001EC0000011241FBEBA
S1130090CFEFD0E1DEBFCDBF11E0A0E0B1E0EAEFE9
S11300A0F5E000E00BBF02C007900D92A234B10747
S11300B0D9F721E0A2E4B1E001C01D92A634B20751
S11300C0E1F71AD198C29CCFE5E6F0E09081916007
S11300D0908390819D7F908390819460908390E140
S11300E09A95F1F700C08093620080E18A95F1F758
S11300F000C080818B7F80830895E5E6F0E09081E5
S11301009E7F908390819D7F908390819460908363
S113011090E19A95F1F700C08093620080E18A959E
S1130120F1F700C080818B7F80830895CDDF83EC5D
S113013099E00197F1F700C000000895CF93DF9391
S1130140EC0108C0F3DF219683EC99E00197F1F705
S113015000C0000088818111F5CF83EC99E00197FC
S1130160F1F700C00000DF91CF91089590E4899FDA
S1130170600D1124862F8068C0DF83EC99E001971D
S1130180F1F700C00000089581E0B7DF83EC99E047
S11301900197F1F700C00000089588E3AEDF83EF14
S11301A091E00197F1F700C0000088E3A6DF83EF38
S11301B091E00197F1F700C0000088E39EDF83EF30
S11301C091E00197F1F700C000008CE096DF83EF27
S11301D091E00197F1F700C0000086E08EDF83EF25
S11301E091E00197F1F700C00000CECF089588EFA9
S11301F08ABB87E08BBB089588E08BBB83E397E0E1
S11302000197F1F789B38770813009F45DC089B330
S11302108770823009F45AC089B38770843009F436
S113022057C08FEF97E40197F1F700C0000080E119
S11302308BBB83E397E00197F1F789B38770813033
S113024009F448C089B38770823009F445C089B382
S11302508770843009F442C08FEF97E40197F1F777
S113026000C0000080E28BBB83E397E00197F1F7C5
S113027089B387708130A1F189B38770823091F19D
S113028089B38770843081F18FEF97E40197F1F798
S113029000C0000080E48BBB83E397E00197F1F793
S11302A089B38770813011F189B38770823001F18D
S11302B089B387708430F1F08FEF97E40197F1F7F9
S11302C000C0000080E0089581E3089582E308956A
S11302D083E3089584E3089585E3089586E3089508
S11302E087E3089588E3089589E308958AE20895E9
S11302F080E3089583E20895CF93DF93CDB7DEB70B
S11303002B970FB6F894DEBF0FBECDBF8FB58960B3
S11303108FBD8EB589618EBD10927A001DBC1CBC48
S113032080E287BB88B38F7D88BB80EF84BB8FEF6F
S1130330809361008FE08093640059DF2EDF24DF17
S11303408BE0E6E3F1E0DE01119601900D928A95CF
S1130350E1F760E080E00ADF84E191E0EFDE60E055
S113036081E004DFCE010196E9DE00E040DF44DFF6
S1130370182F80ED810F8A3020F01A3211F01332D9
S1130380A9F735DF0ADF9E012F5F3F4F7901F9019D
S113039001900020E9F731978AE290E0918380830D
S11303A060E080E0E3DE84E191E0C8DE60E081E0CB
S11303B0DDDEC701C3DEE0914401F0914501E05068
S11303C0FF4F8081181317C03FEF8FE392E0315045
S11303D080409040E1F700C000008091440190917A
S11303E04501019690934501809344011092430185
S11303F01092420118C01817B1F0EFEFFFE322E0AA
S1130400E150F0402040E1F700C0000010924501A7
S1130410109244018091420190914301019690937E
S113042043018093420180914401909145010497D6
S113043009F065C0DCDEA8DE60E081E097DE84E2DE
S113044091E07CDE109245011092440180E887BB64
S1130450E02FF0E0EE0FFF1FE45FFE4F20813181BB
S113046040E050E060E070E880E790E086D037BD7F
S113047026BD86B597B5969587959695879590935D
S11304807900809378000F5F053008F000E03FEFBB
S11304908FE39BE0315080409040E1F700C00000C2
S11304A080E022C090E395BBEFEFF7E43197F1F7DA
S11304B000C0000090E995BBEFEFF7E43197F1F746
S11304C000C0000090EC95BBEFEFF7E43197F1F733
S11304D000C0000090E695BBEFEFF7E43197F1F729
S11304E000C0000015BA8F5F8530E0F2FAEA2AEA0C
S11304F03AEA8AE2F150204030408040D9F78091B6
S1130500420190914301049709F030CF70DE3CDE44
S113051060E081E02BDE8EE291E010DE1092430178
S113052010924201E02FF0E0EE0FFF1FEC5FFE4F50
S11305302081318140E050E060E070E880E790E0A5
S11305401CD037BD26BD86B597B5969587959695EB
S113055087959695879590937900809378000F5F9F
S1130560053008F000E09FEFEFE3FBE09150E0403E
S1130570F040E1F700C00000F9CE052E97FB16F419
S113058000940FD057FD05D014D007FC02D046F4D8
S113059008C050954095309521953F4F4F4F5F4F80
S11305A0089590958095709561957F4F8F4F9F4FDB
S11305B00895A1E21A2EAA1BBB1BFD010DC0AA1FA0
S11305C0BB1FEE1FFF1FA217B307E407F50720F0B8
S11305D0A21BB30BE40BF50B661F771F881F991F33
S11305E01A9469F760957095809590959B01AC017C
S10D05F0BD01CF010895F894FFCF78
S11305FA3132333493020B0293020B020B0293023D
S113060A0F031604446F6F726C6F636B20737973F4
S113061A74656D004F50454E20444F4F5200524569
S113062A545259212100496E736572742050573A05
S105063A0000BA
S9030000FC
